:020000040800F2
:10000000B0050020AD330008CD330008CF33000821
:1000100000000000000000000000000000000000E0
:10002000000000000000000000000000D1330008C4
:100030000000000000000000D3330008D5330008A2
:100040007711000817130008371800083B1800083C
:100050003F180008DF250008B32B0008973100087F
:10006000CF31000803320008D332000847330008BC
:100070005333000887330008E5330008E7330008EE
:10008000E9330008EB330008ED330008EF330008D4
:10009000F1330008F3330008F5330008F7330008A4
:1000A000F9330008FB330008FD330008FF33000874
:1000B000013400080334000805340008FDB5B2B06F
:1000C0003A98049102A93B22885400200D9024A85C
:1000D000401C2F900DE00498329A9047049000281D
:1000E00001D100F001FF0D98401C0D903398401C89
:1000F000339033980178002910D02529EBD10020C6
:100100000790089009900A900B900C90002102240F
:100110000120149008201290339D05E00D9800F006
:10012000E5FE0800149901436D1C28782028F8D0BA
:1001300023280BD02B2804D02D2804D0302808D019
:100140000AE02143F0E708000421ECE70800082159
:10015000E9E708001021E6E72A280FD13498026861
:100160001068121D349B1A600F90002804D542427B
:100170000F920800042101436D1C12E000200F9033
:10018000654A09E00F9B934205DA9E00F3185B0075
:10019000181830380F906D1C28780300303B0A2B5C
:1001A000F0D328782E2803D00020C0430E9027E0FB
:1001B0006D1C28782A2808D1349800680268001D30
:1001C000349B18600E926D1C1AE02D2802D12D224E
:1001D0006D1C00E0002200200E900CE0002A09D1E6
:1001E0000E9B4D4EB34205DA9E00F3185B001818C3
:1001F00030380E906D1C28780300303B0A2BEDD36D
:1002000002A801872E78310041487844FF30C01C95
:1002100000F052FF002801D06D1C00E0002602A86B
:100220003A214654405C682804D1287868280BD1CC
:10023000622005E06C2807D128786C2804D1712051
:1002400002A93A2288546D1C15A8069028786946A0
:100250000870681C3390684602781000253833D047
:100260001C3800D118E2001F022800D814E213380D
:1002700001D100F065FD093800D10DE2801E01D1E9
:1002800000F0FBFD401E01D100F0A8FD401E022839
:1002900000D801E2001F01D100F0A0FD401F00D1F5
:1002A00053E1401E01D100F04BFD401E00D1F3E0B0
:1002B000C01E10D0801E01D100F042FDC01E01D131
:1002C00000F03EFD00F0E4FD252015A9087014980B
:1002D000079000F0E8FD349800680468001D349928
:1002E00008600594002C00D0C2E002A83B21405CCD
:1002F000002800D1B5E00024E443064878441430D7
:1003000000F002FF201A01D000F0EEFD00F0CBFD5E
:100310001C2F0000502F0000CBCCCC0C01236A46D0
:1003200002A9280000F0ADFE002801D000F0DCFD9D
:10033000641EF3D13295079D15AC002D0FD0329E6F
:10034000227802A9300000F08BFE002802D4641C41
:100350006D1EF5D13296002801D000F0C5FD302089
:10036000694608700A9C002C0DDD329D01236A4607
:1003700002A9280000F085FE002801D000F0B4FD9D
:10038000641EF3D13295059C089D002D0FD0329E3E
:10039000227802A9300000F063FE002802D4641C19
:1003A0006D1EF5D13296002801D000F09DFD30275A
:1003B00069460F700B9C002C0DDD329D01236A46AF
:1003C00002A9280000F05DFE002801D000F08CFD9D
:1003D000641EF3D13295059808994418099D002DA3
:1003E0000FD0329E227802A9300000F039FE00289A
:1003F00002D4641C6D1EF5D13296002801D000F0A5
:1004000073FD684607700C9C002C0DDD329D0123A6
:100410006A4602A9280000F034FE002801D000F04E
:1004200063FD641EF3D1329502A83821405C400779
:1004300000D45EE62020694608700198002800DCA0
:1004400057E6019C329D01236A4602A9280000F06C
:1004500018FE002801D000F047FD641EF3D132954C
:1004600047E640487844FF30C01E059000F01BFD71
:100470000E9D002D03D5200000F06AFE09E02A0041
:100480000021200000F06CFE002801D0001B00E0DD
:100490002800089000F007FD349800680268001DED
:1004A000349908600020C0430021104002AA03C212
:1004B00015A80590069A3C2302A803C8002904D178
:1004C000002802D10E9C002C15D05B1E05072D0FB5
:1004D0003035EEB23A2E08DAD55400090C07204325
:1004E000090904D1002802D105E02735F4E7059C6D
:1004F000D518AC42E9D33C20C01A0890D118059118
:100500000E99884208DA081A0A9002A8018FAA4AAE
:100510000A40028700F0C7FC002901D400F0C3FCA8
:1005200002A93822895C14220A40102A01D000F066
:10053000BAFC0F99079A891A0A9A891A081A002888
:1005400001DC00F0B0FC00F0F9FB02A83B21415CAB
:10055000002909D00024E4434B487844FF302B3075
:10056000CEE600BF1C2D00003A21405C62286AD014
:10057000682819D06A2845D06C2806D071284FD039
:10058000742831D07A2821D06FE03498006801684F
:10059000001D349A106000297AD10024E4433B48BE
:1005A0007844FF301738ABE6349800680168001DC6
:1005B000349A1060002905D10024E443334878447C
:1005C000CA309DE60D98088000F06DFC34980068F4
:1005D0000168001D349A1060002959D10024E443B9
:1005E0002A487844A6308BE6349800680168001DDC
:1005F000349A106000294BD10024E4432348784406
:100600008A307DE6349800680268001D34990860DD
:10061000002A13D10024E4431C4878446E306FE66E
:10062000349800680268001D34990860002A05D1DA
:100630000024E44315487844523061E60D98C11710
:1006400003C200F030FC349800680168001D349A41
:100650001060002905D10024E4430C4878442C3074
:100660004EE60D98087000F01EFC34980068016892
:10067000001D349A106000290AD10024E443034885
:10068000784408303CE600BFAC2B0000C02B0000D3
:100690000D98086000F007FC34980368DB1D072004
:1006A00083433498036003CB349D2B6002AB03C3B8
:1006B0002023C80F04D007982D2115AB19540DE045
:1006C00002A8008F204204D007982B2115AB1954A3
:1006D00004E0C00704D5079815A90B54401C0790E7
:1006E00015A807994318059324AD02A8C0C8684609
:1006F00000782021014368468170612909D00E9855
:10070000002801D5062003E003D1672901D1149800
:100710000E9002A803C808004C006415641C0ED19A
:1007200009030CD003200890613A1A2A03D2234906
:10073000794488310FE02249794484310BE0002C60
:100740000ED100030CD103200890613A1A2A1DD360
:100750001C4979446E310322180000F027FDA2E302
:1007600001AA02A803C800F02EFD02AA03C268462F
:100770008078612813D1059830210170811C059182
:1007800069460978612905D1782104E00E49794448
:100790003631E0E7582141700798801C079002A885
:1007A00003C893A20CCA02400B400FD1002A0DD1FE
:1007B0000024002661E100BFEFFF0000C82A00000E
:1007C000C82A0000CC2A0000C42A000068468078AD
:1007D000612800D099E00E98002801D5212000E082
:1007E000401C13901398401C2E90300039000022BA
:1007F000002300F0FDFC02A830C802D280200006D1
:1008000045400198001F019024A90A7024A8461CA5
:100810002E98002832DD2E9F200029000022802300
:100820005B0300F0FEFC29D81C2200F013FD04003D
:100830000D0000F047FD2E90FF1F002F09DD00F096
:100840007BFD02000B002000290000F0E2FD040007
:100850000D00F01D07212E9A002A0ADD491E08D43A
:10086000401E13071B0F03701211F5E7401E0022F4
:100870000270491EFAD5C61D002FCDDC24A82F9981
:10088000711A24AA551C139A0C00914200DD140021
:10089000002C33D48C4205DA411C095D082901DBA8
:1008A0000F2100E00021220024AB9B1801E0641E10
:1008B0005B1E521E1E788E42F9D00F2904D1411CB6
:1008C000895C491C401C8154002A04D524AD641C59
:1008D0000198001D0190611E10D46A1868460078C6
:1008E00013783033DEB23A2E01DBC318C6331370EF
:1008F000491E521E0029F3D5694608700E9800283B
:1009000000D4B9E0601E0E90B6E07F007F08019829
:1009100068494843684900F0F3FD019007200199B8
:10092000401A002805DD02003000390000F072FB9B
:100930000AE042420020614900F06CFB02000B001B
:100940003000390000F00BFE6A469278662A02D128
:10095000019A0A3200E006220E9B9A18142A00DD42
:10096000142224AB30241C705C1C02E030A803C8A5
:10097000139A002A40DD30AB03C3139230A803C89A
:1009800000F0B2FC2E9006460834042530000A21FF
:1009900000F0CAFD0F0030000A2100F0C5FD06007E
:1009A0003037601E077030000A2100F0BDFD0F00D7
:1009B00030000A2100F0B8FD0600A41E3037277071
:1009C0006D1EE3D108341398083813900028CDDD4C
:1009D0002E9800F0A1FC02000B0030A803C800F024
:1009E00018FD0022364B00F01BFE30AA03C2C5E7FB
:1009F000FFFFFFFFFFFFFF7F2F98201A24A94D1C48
:100A000004E0401E0199491E01916D1C297830298E
:100A1000F7D069468978662902D10199491C06E018
:100A200069468978652901D1149900E000210E9A60
:100A30005418A04200DA441E002C1DD4844204DA6B
:100A4000285D342801DD392100E030212200681EB4
:100A5000831801E0641E5B1E521E1E788E42F9D080
:100A6000392902D1A95C491CA954002A04D50500E2
:100A7000641C0198401C0190019E13956846007803
:100A80006946487000F08EFE406A0078694608703A
:100A90000E9D20B2002804DC149C054878441030D8
:100AA00013906846807866280CD1761C24E000BF3D
:100AB000E427000097750000A08601000000F03FC9
:100AC00084D7974168468078672846D130B20321A1
:100AD000C943884247DBA84245DA761C02A8008F4A
:100AE0001299C0B2084203D120B2A84200DC05002E
:100AF00030B22D1A00D5002537B2002F00DDBAE044
:100B00000898411C08913021059A1154002D05DCEC
:100B100002A8008F1299C0B2084206D00898411C62
:100B2000089169460978059A11547842854200DA9D
:100B30006E4236B270420B90AD1920B2854200DA97
:100B40002C0024B20994220013990598089BC01820
:100B500000F02CFB281B0C90DAE0684640786128F6
:100B600018D170201BE020B2A84206DA02A9098F32
:100B7000129AC9B2114200D105006D1E00D50025A0
:100B800068464078672802D16520694607E045201D
:100B9000694604E068464078412801D150204870F9
:100BA0000898411C089113990978059A11541398D3
:100BB000411C002D05DC02A8008F129AC0B2104221
:100BC00019D00898421C08926A461278059B1A545C
:100BD000002D10DD641E20B2854200DA2C0022B206
:100BE0000598089BC01800F0E1FA24B20898001993
:100BF0000890281B0B900598089940186946497879
:100C0000017031B2002903D42B214170871C03E00D
:100C10002D224270871C4E42002412AD300008E0A5
:100C20000A2100F06DFC30AA03C229703098641CC0
:100C30006D1C00B20028F3DC012C08DC684640780B
:100C400020210143652902D1302038707F1C002CFF
:100C500009D1302038707F1C07E0641E12A8005DA7
:100C6000303038707F1C002CF7DC0598089940184C
:100C7000381A09904CE020B231B288421DDA22B213
:100C800013990598089BC01800F090FA24B20898B0
:100C900000190890391B0B91002D05DC02A9098F62
:100CA000129AC9B2114206D069460978059A1154C0
:100CB0000998401C09900C952AE032B213990598C6
:100CC000089BC01800F072FA0898C0190890A41B7D
:100CD000002D05DC02A9098F129AC9B2114205D074
:100CE000411C089169460978059A115420B2854241
:100CF00000DA2C0022B21398C1190598089BC0187D
:100D000000F054FA24B2089800190890281B0B90A0
:100D100002A83821405C14210140102900D0C2E013
:100D20000798089940180B994018099940180C9990
:100D300040180F99884200DBB5E0081A0A90B2E02B
:100D400002AA3A20105C622808D068280ED06A28CF
:100D500014D06C281DD0712810D01AE03498016886
:100D60000868091D349B1960C0B218E03498016806
:100D70000868091D349B196080B210E0349803683C
:100D8000DB1D072083433498036003CB349C23602E
:100D900006E0349801680868091D349B1960002139
:100DA00002AB03C3108F1299C0B208425BD002A8F5
:100DB00003C8002901D1002855D0684600782021B9
:100DC000014378294FD1079815A930220A54401CB5
:100DD000421C07926A4612780A5444E002AA3A205A
:100DE000105C622808D068280ED06A2814D06C28BD
:100DF0001DD0712810D01AE0349801680868091DC8
:100E0000349B196040B218E0349801680868091DE5
:100E1000349B196000B210E034980368DB1D072092
:100E200083433498036003CB349D2B6006E03498F1
:100E300001680868091D349B1960C11702AB03C320
:100E4000002902DA07982D2109E0108F204202D0F4
:100E500007982B2103E0C00705D50798202115AA84
:100E60001154401C079015A8079940180590684632
:100E7000017802A800F03CF815E014980790349827
:100E800000680168001D349A106015A801700AE01E
:100E9000252015A908701498079068460078002846
:100EA00001D04A7007940F980799401A0A99401A7E
:100EB0000899401A0B99401A0999401A0C99401A3E
:100EC000019002A83821405C400701D5FFF733FAB2
:100ED0002020694608700198002801DCFFF72BFAF2
:100EE000019C329DFFF71AFA0020C04335B0F0BDD7
:100EF000F2B586B0040025696F2901D1082707E003
:100F0000084620210143782901D00A2700E0102754
:100F10003C2603CC083C04AA03C26A46127E642A1B
:100F200003D06A46127E692A09D1002907DA04A88B
:100F300003C800220023121A8B4104A80CC004A885
:100F400003C800290DD100280BD1206B002808D13F
:100F5000082F3DD13820205C000739D53B263020B2
:100F600035E00294009504A830C8761E0196200052
:100F700029003A00FB1700F01BFC3032D0B23A28AF
:100F80000DDA00988255200029003A00FB1700F086
:100F90000FFC04000D0007D1002C05D10AE06846C3
:100FA000007E8218AF32ECE70298C0680099891978
:100FB0008842DAD3029C009D082F09D13820205C9A
:100FC000000705D5A85D302802D0761E3020A85530
:100FD0003C20801BA061A919E160216B884206DAE0
:100FE000081A2062208F1C490140218710E0002947
:100FF0000ED53821615C14220A40102A08D1616B99
:101000006269891A226A891A081A002800DD20629A
:1010100007B0F0BDF8B50026104F04000D00009297
:1010200014E0C00707D532003B002000290000F083
:10103000F7FA04000D0000984010009030003900CD
:1010400032003B0000F0ECFA06000F000098002888
:10105000E7D120002900F4BDEFFF0000000024408C
:1010600010B503000C001100A0689847A06000288C
:1010700004D0E06A401CE062002010BD0020C043A4
:1010800010BDF8B50024002B11D007000E0014008D
:101090001D002178B068B847B060002809D0F06A18
:1010A000401CF0620020641C6D1EF2D10400200080
:1010B000F2BD0020C043F9E7C9B202788A4203D0EA
:1010C000401C002AF9D10020704730B50168411852
:1010D000446862088A188368E40704D54C461B19E3
:1010E00001E0641C09D1914203D00C7864B2491C20
:1010F00001E00C3030BD0D78491C1D705B1C002CCC
:10110000EFD4641EF7D5EEE780B5002801D100BF0B
:1011100007A006490B68002B03D022220021984724
:1011200001E000F083FB222002BD0000A8010020A6
:10113000636F6E73747261696E742068616E646C43
:1011400065723A20626164206D6573736167650042
:10115000431C0178401C0942FBD1C01A70472E0085
:10116000C9B2521E05D30378401C8B42F9D1401EF0
:10117000704700207047FEE770B4103A03D378C977
:10118000103A78C0FBD2530701D318C918C001D553
:1011900008C908C0D20704D30B880380891C801CAF
:1011A000002A01D50B78037070BC70478B0701D102
:1011B0008307E1D0124205D00B78491C0370401C14
:1011C000521EF9D1704710B5144600F002F82260A3
:1011D00010BD4A0053155B1C08D0520D06D00323E6
:1011E0001B02FE3AD21A1305C91A70470022704733
:1011F00030B4012464054D00EC420BD85D00EC4294
:1012000008D80C001C4364000443144304D29942E0
:1012100000D1904230BC7047FCD08B42FAD1824260
:10122000F8E730B4012464054D00EC420BD85D00B2
:10123000EC4208D80C001C4364000443144304D25D
:101240008B4200D1824230BC7047FCD09942FAD127
:101250009042F8E7124217D40023DB435B0D9C4613
:101260004B005B0D06D0634504D09B18634502D24A
:101270001205891870476246090D114309050020BF
:1012800000B500BF00BF00BD52424B005B0DF1D066
:101290005B1C5B05EED25B0D934102D91205891AE6
:1012A00070470BD10B031B13C90FC907821C002009
:1012B00043411343E4D912051143E1E7C90FC907BC
:1012C0000020DDE7F4464A1805D200F00FF801D5FA
:1012D00080174008604700F009F80121C9078842DB
:1012E00000D90800404260474A1812D2400DC90296
:1012F00008430121C9070843520D40210901521A30
:10130000521C06D452421F3201D4D0407047C0173D
:10131000704700207047FEE7010042221201D21EF2
:10132000004207D002D4521E0018FCD5C10A400565
:1013300012058918704700000100EED54042F446BE
:10134000FFF7EBFF0122D20711436047F0B40125FC
:10135000ED070F005F404FD48B4200D1824205D988
:101360008446100062468C4619006346DF184C180C
:10137000640D7F0D3AD0661C760537D0E61B352EFE
:1013800034DCDB022B43DB0A0C0DC9022943C912F2
:10139000202E0DDB1700203E06D01F00F741F34042
:1013A0005F400026012A7741C01871410DD217E035
:1013B0001700F741F2405740F3415A40B340F34021
:1013C0005A400026801859410AD3A21C52050FD05A
:1013D000C207012F724117004008CB071843490884
:1013E000641C24054208AF4170416141F0BC704764
:1013F000641C21050020F9E76B4010E06B40ABE76F
:10140000F742F3D1E943F1E72442EFD10020002174
:10141000ECE7F0B40125ED070F005F40EED40C00BF
:10142000871A9C4105D2C01BA141D2196341694072
:101430006B40AE0ADF184C18F442E1D2640D7F0D08
:10144000E2D0E61B362ED1DCDB022B43DB0AA446BE
:101450000C0DC9022943C90A012E28DC04D1D60784
:101460005208DF073A435B08EF0A76429041994100
:1014700014D039423BD1B61940414941761C39421A
:1014800004D1761C001849413942FAD0B943674665
:10149000B74208D9A41B24052143A7E70042EAD19B
:1014A0003642E8D1A2E7E40AE10700209EE7202EB9
:1014B0000BDD203E1F00F340F7415F40012A002270
:1014C00057417E42984191410BE01700F741F240AD
:1014D0005740F3415A40B340F3405A407E42904156
:1014E00099410A0303D2641EB619404149410027BD
:1014F000641E24054208AE4178416141F0BC70474A
:10150000CA0F00D0494203105A400DD004B500D391
:10151000404200F009F8009AD20701D34942124232
:1015200000D5404204BD0000094214D088420FD3C8
:101530000122030C01D100041204002300185B41B6
:101540008B4200D35B1A5241F8D319001000704748
:1015500001000020704708B500F06EF908BDF0B436
:101560000E005E400125ED072E40B446AE0ADF189E
:101570004C18F4423BD2F74241D2640D43D07F0D68
:1015800038D0E41BC902DB0229432B43CF0ADB0A14
:101590000600B61A9F4104D2641EB6197F41B618E0
:1015A0005F416812800D24180018844222DCE80C88
:1015B0000021B6197F41B61A9F4102D2B6185F4189
:1015C0003F1C40414941F4D3241C21DD2405B619B8
:1015D0007F41B61A9F4105D33743C60737430026DC
:1015E000012F7041614166463143F0BC7047FCD128
:1015F000F74205D20020C14349054908F3E704D06A
:101600000020C143F1E77F0DFAD000206146ECE7EE
:101610002442FAD1401C61410F03F6D30020E2E7D7
:10162000F0B50E005E400125ED072E40B446AE0A2F
:10163000DF184C18F44208D2F7420ED2640D01D0E4
:101640007F0D12D100206146F0BD05D1F74201D8CF
:101650007F0D05D10020C143F0BDFBD1640DF9D051
:101660000020C143490549088FE0E419C902DB02A3
:1016700029432B43DB0A460DC00231438E4630B46A
:1016800087B295B27D432E0CADB2140C7C43A419E5
:10169000260C240425439CB27C43A419190C7943DD
:1016A000270CC919A4B20F043C43090C000C97B2D3
:1016B00047432E0CBE193543ADB2170C4743360CC9
:1016C000BF19A6B2BF193E043543240C3E0C36198F
:1016D0009FB24743BF19BCB23E0C89191F0C474348
:1016E0007F183E043443390C704680B297B24743AA
:1016F0002E0CBE193543ADB2170C4743360CBF193B
:10170000A6B2BF193E043543240C3E0C36199FB2D5
:101710004743BF19BCB23E0C89191F0C47437F18C1
:101720003E043443390C77463F0C90B278432E0C7C
:1017300080190604ADB22E43050CA0B22D18120C70
:101740007A435019020C80B2240CA4189AB27A433E
:10175000121914042043120C89181B0C7B43C9185E
:1017600030BCEF0A394203D1B61940414941641EE9
:101770006F12BF0DE41B0BDBFF19BC4211DA24050D
:1017800000274208AE417841614166463143F0BDD1
:10179000641C05D1401C6141CF0201D34908F4E724
:1017A00050E75DE70148704700000000100000208E
:1017B00012422DD0994231D970B500251B4209D073
:1017C0000C00002112E01100FFF7AEFE0A0000211C
:1017D000002370BD0942F6D0002401264918644157
:1017E000944200D3A41A7641F8D33100012601E0D7
:1017F000764109D2001864416D41A41A9D41F7D287
:10180000A4185D41B619F5D3300022002B0070BD3D
:101810001B42CFD108B500F011F808BD01D19042AC
:10182000CAD202000B0000210020704780B50120C1
:1018300000F006F801BDFEE77047FEE77047FEE7DF
:1018400080B500BF00BF024A11001820ABBEFBE705
:1018500026000200F8B506001AD0A04C3078C00768
:1018600018D560680C21014004290CD060680C2157
:101870000140082949D16068C02149020140802007
:101880004002814241D12068800303D5706800285E
:1018900000D1E4E1307880071FD5F827FF43606866
:1018A0000C2101400CD060680C210140082963D153
:1018B0006068C021490201408020000281425BD162
:1018C0002068800703D5F068012800D0C7E12068B0
:1018D00007403069C00038432060307800077CD56D
:1018E0000227F0690028606A68D001210143616223
:1018F00000F09EFA0500606A38406ED100F098FA58
:10190000401B0228F7D90320F2BD7168012909D0D4
:10191000B04800290CD005290AD120688021C902CD
:10192000014321602068802149020143216006E0D3
:101930002168A94A0A402260216808402060802767
:10194000BF02706800280BD000F072FA0500206812
:1019500038409FD100F06CFA401B6528F7D3D2E7DE
:1019600000F066FA05002068384093D000F060FA75
:10197000401B6528F7D3C6E7F068002820680ED022
:1019800001210143216000F053FA0500206880071F
:101990009DD400F04DFA401B0228F7D9B3E701218E
:1019A0008843206000F044FA05002068800794D541
:1019B00000F03EFA401B0228F7D9A4E70121884332
:1019C000606200F035FA0500606A384005D000F02A
:1019D0002FFA401B0228F7D995E73078400761D5E8
:1019E0000020009080204005E169014008D1E169B4
:1019F0000143E161E16908400090009801200090F6
:101A0000994F3868C0050FD43868A10D014339607B
:101A100000F00EFA05003868C00505D400F008FA99
:101A2000401B6528F7D36EE7B068012809D000286D
:101A300001D1206A0AE00528206A07D10421014368
:101A40002162206A01210143216206E001218843CD
:101A50002062206A0421884320620227B06800289F
:101A60000CD000F0E5F90500206A384013D100F0F1
:101A7000DFF9401B7D498842F6D344E700F0D8F9EE
:101A80000500206A384006D000F0D2F9401B7749A3
:101A90008842F6D337E70098002803D0E0697449FC
:101AA0000140E1613078C00620D57069F825ED432A
:101AB0000422012850D1606B02436263606B0121F4
:101AC0000143616300F0B4F90700606B800707D43D
:101AD00000F0AEF9C01B0228F7D914E7001002404D
:101AE000606B0540B069C000284360630C27307804
:101AF000800614D5606838400C2809D060683840EA
:101B0000082843D1606879030140780381423DD1C0
:101B1000606B800303D5306A012800D09FE0706AB3
:101B2000002800D19DE061680F40082F00D181E0BE
:101B30008027BF049149022820686DD101402160AF
:101B400000F076F905002068384047D000F070F9C1
:101B5000401B0228F7D9D6E60421C9438842606BAE
:101B600002D101406163BBE702436263606B012104
:101B70008843606300F05CF90500606B8007B5D5B1
:101B800000F056F9401B0228F7D9BCE6306A00285D
:101B9000606B0FD0802149020143616300F048F976
:101BA0000500606B8003BAD400F042F9401B0228A4
:101BB000F7D9A8E608490140616300F039F905004A
:101BC000606B8003ABD500F033F9401B0228F7D9D6
:101BD00099E600BFFFFFFBFFFFFFFEFFE06A0F215A
:101BE0008843316B0143E16260687E490140F06ADD
:101BF0000843B16A014361602068790801432160AC
:101C000000F016F90500206838402AD100F010F9DC
:101C1000401B0228F7D976E60140216000F008F960
:101C20000500206838401CD000F002F9401B022853
:101C3000F7D968E6012812D06068E16AC022520232
:101C40000240B36A9A420AD10907090F326B9142E6
:101C500005D1F02189030140F06A814201D00120C1
:101C6000F2BD0020F2BD00000070004089130000AA
:101C7000FFFFFFEFF8B5040066D000915A480068F6
:101C8000C107C90F009881420CD257480168012250
:101C90009143009A0A4302600068C107C90F009887
:101CA000814251D12168514D022001420CD0490797
:101CB00004D56968E022D2000A436A606968F022AC
:101CC0009143A2680A436A600127216839402BD0FA
:101CD00061680204012901D1286808E0022903D1C2
:101CE0002868800109D42FE0032903D1686B0240E2
:101CF00003D129E02A68104026D068680322904367
:101D00000143696000F094F8060068680C21014006
:101D100060688000814207D000F08AF8801B344957
:101D20008842F2D30320F2BD2F48009902683A405E
:101D300091420BD20168B943009A0A4302600068DD
:101D400007400098874201D00120F2BD207840076B
:101D500005D5686827490140E0680843686000F0DD
:101D60000FF825496A681206120F895CC84023499A
:101D70000860002000F062F80020F2BDFFFFFFFEC7
:101D8000F0B51F490B681F481F4A0C241C40082C43
:101D900002D00C2C1AD0F0BD0F2500BF1CA49E0C45
:101DA0002E40A45D1EA6896A0D40715DC0256D029E
:101DB0002E001E4080277F02BE4203D02B40AB4244
:101DC00000D11000FFF7B0FB6043F0BD1000F0BD84
:101DD0000A4800680D490A4A12685205520F895C88
:101DE000C8407047FF7FC2FF002002400010024041
:101DF00089130000FFF8FFFF9C3300080C0000204F
:101E00000410024000127A00006CDC02DC3300088F
:101E100002030405060708090A0B0C0D0E0F10102B
:101E20000102030405060708090A0B0C0D0E0F102A
:101E300001484068704700BF0000002038B5050029
:101E40000D4CFA2080002178FFF76EFB01000B4853
:101E50000068FFF769FB00F034F800280AD1042D70
:101E600008D2002229000020C04300F026F8A56017
:101E7000002032BD012032BD000000200C000020F7
:101E800010B5C20018231340FF249C40E243890789
:101E9000090E9940030004D414489B089B00C01805
:101EA00006E0134B0007000F083880088000181860
:101EB00003681A401143016010BD80B5FFF7E0FFD1
:101EC00001BD10B5401E80214904884201D3012084
:101ED00010BD084C606003210020C043FFF7D0FF15
:101EE0000020A0600721216010BD000000E400E098
:101EF0001CED00E010E000E038B5040014D025002F
:101F000078356868002803D12870200000F0CEFAE8
:101F1000242068602068016801229143016020004C
:101F200000F08DF8012801D1012032BD606A00283F
:101F300002D0200000F037F920684168084A0A40C2
:101F40004260206881682A2291438160FFE720680F
:101F5000016801220A430260200000F095F932BDB9
:101F6000FFB7FFFFF1B584B01F0006465036F06A98
:101F7000202861D10C000FD068460280002A0BD0C7
:101F80000498806880214901884207D1049800693B
:101F9000002803D1E00701D501204EE0002575633C
:101FA0002120F062FFF744FF01006846008830807E
:101FB0006846008870803A000498806880235B013E
:101FC000984209D104980069002805D12500049F92
:101FD0000192029104001AE02000F8E721780185BF
:101FE000641C11E001980090029B002280213800BF
:101FF00000F0B4F900281BD13868002CEED12988F4
:10200000C905C90D0185AD1C7088401E708070889F
:102010000028E7D13800029B01990091002240215D
:1020200000F09CF9002803D12020F062002004E099
:102030002020F062032000E0022005B0F0BDF8B5DA
:1020400006000024002530680168894A0A40B1680A
:10205000114332690A4371691143F2690A4302600C
:102060004168844A0A40F168114341608168824AAC
:102070000A40B1691143326A0A4382607F491022E3
:102080007F4B984208D108688007800F3CD0022817
:1020900029D026D3032821E07A4B98420DD1086835
:1020A000C021890201402FD01003814219D0400085
:1020B000814218D0C02080020FE09F4B984214D17B
:1020C0000868C021090301401ED09003814208D056
:1020D0004000814207D0C0200003814215D1022276
:1020E00013E0042211E008220FE0944988420BD04B
:1020F0009349884208D09349884205D09249884242
:1021000002D09249884200D10022914F914880210B
:102110000902F3698B4221D1002A06D0022A18D085
:10212000042A18D0082A04D037E0FFF751FE010036
:1021300034D072684800510840181100FFF7F4F9D4
:1021400001001039B94228D207400007400F384338
:102150001BE00100EDE7FFF713FEE8E7002A06D0D9
:10216000022A08D0042A13D0082A14D015E0FFF759
:102170002FFE002812D071684A088018FFF7D4F9A2
:1021800001001039B94208D280B23168C86005E058
:10219000FFF7F6FDEDE70800EDE70125B466F4660C
:1021A0002800F2BD00002421415CC90706D5016862
:1021B0004A68694B1340826A1A434A602421415C91
:1021C000890706D501684A688A4B1340C26A1A43D8
:1021D0004A602421415C490706D501684A68864B5C
:1021E0001340026B1A434A602421415C090706D55B
:1021F00001684A68814B1340426B1A434A602421AC
:10220000415CC90606D501688A687D4B1340826B24
:102210001A438A602421415C890606D501688A68D0
:10222000784B1340C26B1A438A602421415C4906F3
:1022300011D501684A68744B1340026C1A434A6016
:10224000026C80235B039A4205D14A686F4B1340AE
:10225000426C1A434A602421415C090606D5016894
:102260004A686B4B1340806C18434860704700000D
:10227000F369FFEFFFCFFFFFFFF4FFFF30100240D5
:102280000038014000440040FEB5060037007837B2
:102290000024FC60FFF7CCFD019020253068006829
:1022A000000717D55B480090019B002229043000ED
:1022B00000F054F800280DD0EFF31080012181F3D5
:1022C000108831680A6880239A430A6080F3108876
:1022D0007D6026E030680068400725D54D480090B5
:1022E000019B00226904300000F038F800281BD060
:1022F000EFF31080012181F3108831680A685E4B8A
:1023000013400B6080F31088EFF31080012181F3FC
:10231000108831688A6801239A438A6080F31088A4
:10232000BD603C700320FEBD7D60BD603466746698
:102330003C700020FEBD000000480040004C004002
:10234000005000400014014000180140001C0140F2
:10235000F0FF000000127A00FFFFFDFFFEB58027AE
:102360003F0108240025060001916846027002938F
:102370003068C069019901400198814201D1012072
:1023800000E0002069460978884231D10898002190
:10239000C9438842ECD0FFF74BFD0299401A0899D7
:1023A000814201D3002901D10320FEBD30680068BD
:1023B0004007DDD53068C0692040306803D1C0696E
:1023C0003840D5D009E00462300000F025F8300034
:1023D0007830C46005700120FEBD306807623000AF
:1023E00000F01AF8300078302021C1600570DBE77A
:1023F0000020FEBDFFFFFEFFFFFFFBFFFF7FFFFF93
:10240000FFEFFFFFFFDFFFFFFFFFEFFFFFFF9FFF7C
:10241000FFFFF7FFFFFFFF0110B5EFF3108101226F
:1024200082F3108802681368134C1C40146081F317
:102430001088EFF31081012282F3108802689368FC
:102440000124A343936081F31088016E01290BD10D
:10245000EFF31081012282F31088026813681024C0
:10246000A343136081F31088202180228150002132
:102470000166816610BD0000DFFEFFFF80B52648C3
:1024800026490160E1214902416000218160C1606B
:1024900001610C2242618161C16101624162FFF709
:1024A0002BFD002801D000F08EF801BD10B586B0DC
:1024B00004001422002101A800F087F820681749C1
:1024C00088421ED11649802080028A6802438A60B1
:1024D0008A6802400092009A0A6802430A6009680A
:1024E0000840009000980C200190022002900020EB
:1024F000039004900120059001A99020C00500F0F0
:102500006FF806B010BD01B5064B012269460248BE
:10251000FFF728FD009802BD900000200044004015
:1025200014100240FFFF000080B500F03BF900F0FE
:1025300009F800F047F900F08BF9FFF79FFF00F072
:10254000C9F9FCE738B598B0342200210BA800F097
:102550003CF810220021684600F037F81C220021C8
:1025600004A800F032F811200B9005200C900120F7
:102570001090102111910224149401041591A021AE
:102580008903169117900BA8FFF764F9002801D072
:1025900000F019F80720009001940025029503959A
:1025A00001216846FFF766FB002801D072B6FEE7FE
:1025B0000494079504A800F039FA002801D072B6F7
:1025C000FEE719B030BD72B6FEE710B50400080092
:1025D00011000200200000F0C5FA200010BDFEE747
:1025E000FFB500220F2302932DE0052403E0664C83
:1025F000A042FAD104246D462D78AC403443019DAD
:102600002C60624CA668DC4326404D68ED0200D584
:102610001E435E4DAE60EE6826404F68BF0200D597
:102620001E43EE606E6826404F68BF0300D51E4310
:102630006E602E6834404E68F60302D526001C00FA
:1026400034432C60521C0B681C00D44000D193E032
:10265000012494402340F5D055000327AF40FE43AA
:1026600001964E68B707BF0F012F03D0B607B60F0C
:10267000022E0ED18768019E3E40CF68AF4037439F
:1026800087604668A6434C68E706FF0F97403743CC
:10269000476094006E4674700C79A407A40F032C55
:1026A00026D0C468019E26408C68AC403443C46088
:1026B0000C79A407A40F022C1AD1D408A400041981
:1026C000266A03966E4677781C263E406F463E701B
:1026D000039EB446029F6E463678B7406646BE43B8
:1026E000B4460F696E463678B74066463743276270
:1026F00007680324019E3E404F682740BC462F00D8
:102700006546BD40354305604D6826042E4099D08E
:1027100001251F4E36682E431D4F3E603E682E40F9
:102720000196019E1B4E9708BF00F6190196366868
:1027300003966E4677780C263E406F463E70039EA9
:10274000B446029F6E463678B7406646BE43902731
:10275000FF05B84201D100244DE70F4FB84201D127
:10276000012448E70D4DA84201D1022443E70C4D56
:10277000A84200D03BE73EE7FFBD002A01D08161BF
:10278000704781627047000000100048000401405B
:1027900018100240080001400004004800080048EA
:1027A000000C004880B50648016810220A43026008
:1027B0000020FFF743FB00F0FDF9002002BD000000
:1027C0000020024038B586B01422002101A8FFF78E
:1027D000FCFE802109031C4802680A43026002686B
:1027E0001140009100998021C90302680A430260E8
:1027F00002681140009100998021890202680A4311
:10280000026000680140009100989024E4050022D5
:1028100020212000FFF7B1FF80208001019084205B
:10282000800302900025039501A90848FFF7D8FE10
:1028300020200190012002900395049501A9200019
:10284000FFF7CEFE07B030BD14100240000800486C
:102850001FB50C2200216846FFF7B7FE554C5648BD
:10286000206000206060A060E060012121610422FE
:1028700062612083A176E076FF22C232E2612062AB
:102880002422A054A162200000F0ACF9002801D05D
:10289000FFF799FE102000900002019003200290A3
:1028A0006946200000F011FB002801D0FFF78BFEE5
:1028B0001FBD81B000684049884208D1480D3F499A
:1028C0000A6802430A60096808400090009801B055
:1028D00070470000F8B500250026364C200000F0B7
:1028E00033FA8027BF00C821200000F075FA0028C5
:1028F00018D1200000F06AFB384013D0200000F00F
:10290000E1FAFEF719FD2EA20CCAFEF789FE00229D
:102910002D4BFEF785FE00222C4BFEF781FE00F0CA
:1029200009FC0600200000F00FFAC821200000F08A
:1029300053FA002825D1200000F048FB074020D0A2
:10294000200000F0BFFA00F037FC00F041FC20A2AC
:102950000CCAFEF765FE00F0EDFB00F039FC02004A
:102960000B001DA003C8FEF754FD1DA20CCAFEF704
:10297000F6FD00221C4BFEF7E9FC00F0DBFB4500F6
:102980006D08200000F007FA300000F021FC020082
:102990000B0000BF15A000F035FC00BF18A000F030
:1029A00031FC280000F014FC02000B001BA000F01A
:1029B00029FCF1BD680100200024014018100240EC
:1029C0006666666666660A400000303F00000440A6
:1029D0006666666666664A3FE17A14AE47E1F63F90
:1029E00022FDF675E09C713F000039400D0A4261FE
:1029F000745F56616C75653D256C66200D0A00009C
:102A00002A2A2A2A2A2A2A2A2A2A2A2A2A2A2A2A26
:102A10002A2A2A2A2A2A0D0A000000000D0A7465B3
:102A20006D703D252E3266200D0A0000F8B50400B9
:102A3000444D2068C00356D50020009080204005FA
:102A40002968014008D129680143296029680840A4
:102A500000900098012000903B4F3868C00510D4CA
:102A60003868A90D01433960FFF7E2F906003868BC
:102A7000C00506D4FFF7DCF9801B6528F7D30320D7
:102A8000F2BDC020800069680140304F00291ED08F
:102A90006268104081421AD06868384069688022B4
:102AA00052020A436A606968294A0A406A6068609B
:102AB000C0070CD5FFF7BCF906006868800706D48C
:102AC000FFF7B6F9801B23498842F6D3D7E7686839
:102AD00007406068384368600098002803D0286881
:102AE0001D49014029602078C00705D56869032188
:102AF0008843A168014369612078800705D568692A
:102B000016490140E068084368612068400305D524
:102B1000686913490140206908436861207880068C
:102B200005D568691021884361690143696120689E
:102B3000400505D5686940218843A1690143696161
:102B40000020F2BD1C10024000700040FFFCFFFF9F
:102B5000FFFFFEFF89130000FFFFFFEFFFFFFCFFF9
:102B6000FFFFF3FF1206130A1A43130C1A4300BFA8
:102B7000094205D0830705D00270401C491EF9D1D7
:102B8000704700001300103906D330B4140015004C
:102B900010393CC0FCD230BC490700D30CC000D572
:102BA00004C0890002D30280801C002900D5027075
:102BB0007047FEE781B0012009490A6802430A60B4
:102BC0000A68104000900098802040054A6802433F
:102BD0004A60496808400090009801B0704700BF03
:102BE00018100240F8B504000025002C01D1012086
:102BF000F2BDA06B002805D1E063342160542000B1
:102C0000FFF757FE10210122A06B084003D1236873
:102C100004209E68064000D090E0A76B6D4E3E40B9
:102C200002273743A7639E68B607B60F012E05D16A
:102C30001E6816400FD1DE6836040CD4DE681827F3
:102C4000BE43A7683743DF6023681E69B600B60835
:102C5000676837431F612368DE68934F3740DF6042
:102C6000A36A012B01D0860200E000262369022B13
:102C700001D1009000E00095A37E207E8003677E56
:102C8000FF030743580338430643E0683043009E80
:102C900006432420205C40003043E67E012E0CD108
:102CA000002B03D103000803184306E0A36B202682
:102CB0001E43A663E36B1343E363E369FF26C23657
:102CC000B34202D00343206A18432368DE680643F8
:102CD000DE60E36A0E06B3420DD0012B0BD0022B4F
:102CE00009D0032B07D0042B05D0052B03D0062BCE
:102CF00001D0072B0CD123685E690727BE435E61B4
:102D000023685E692C27E75D7F077F0F37435F618C
:102D10000223DB432668F668644F3740874205D1BB
:102D2000E563A06B03401A43A2630BE0A06B034072
:102D30001943A163E06B1043E06302E0A06B014321
:102D4000A16301252800F2BDF8B50400002500208C
:102D500004262168896831401BD13421615C012936
:102D600017D02700343701213970617E012904D042
:102D7000200000F02DF901000CD1A16B4F4A0A4050
:102D8000B1011143A163E5633D701C21226811600C
:102D90008EE00220F2BD70B504003420205C0128D2
:102DA00001D1022070BD2500343501262E7020008F
:102DB00000F087F9010009D1200000F04DF9010071
:102DC00004D1A16B034A0A401643A663002129706F
:102DD00070BD0000FFFEFFFFFEB505000E000020E5
:102DE000009001246869082801D108270DE02868AF
:102DF000C068204008D0A86B20210143A963009837
:102E0000342168540120FEBD0C27FFF711F8019012
:102E100028680168394018D10020C0438642F7D0A5
:102E2000002E05D0FFF704F80199401A8642EFD230
:102E3000286800683840EBD1A86B04210143A963DE
:102E40000098342168540320FEBDA96B62020A4336
:102E5000AA632968C968C02212010A401CD1A97E50
:102E6000002919D10068000716D528688068400736
:102E70000BD4286840680C21884329684860A86BF7
:102E80000F4901400C43AC6306E0A86B20210143CD
:102E9000A963E86B0443EC63287E002802D10C2070
:102EA000296808600020FEBD1902FEFFE7FF3F838E
:102EB00021688A6816438E60F2BD0000FEF1FFFFB4
:102EC000FFFEFFFF0068006C7047F8B504000025A6
:102ED000002600953420205C012801D10220F2BD9B
:102EE00001203423E054226893685B0765D40B68A3
:102EF0009840009056484B68564FBB42936A009FDB
:102F000049D01F439762E26A80235B059A421FD033
:102F1000012A1DD0022A1BD0032A19D0042A17D057
:102F2000052A15D0062A13D0072A11D022688B68EB
:102F300057697F077F0FBB420AD053690727BB43FE
:102F40005361226853690F7A7F077F0F1F435761D0
:102F50000A68102A19D0112A1AD0122A32D18022D6
:102F6000520403681A430260086810282AD16B488B
:102F700000686B49FEF7D8FA0A2148430090009890
:102F800000281FD00098401EF8E780221204E8E7CE
:102F90008022D203E5E7BB4393620968102908D079
:102FA000112908D012290DD15E4902681140016033
:102FB00008E05D49F9E75D49F7E7A16B20220A4384
:102FC000A2630126342025543000F2BD806B704787
:102FD000F8B5050000200090286801248168890761
:102FE000890F012905D1016821402ED1C16809044A
:102FF0002BD4102781684E4A0A401ED18168214394
:103000008160464800684649FEF78EFA01E0009864
:10301000401E009000980028F9D1FEF709FF060035
:1030200028680068204010D1FEF702FF801B0328AB
:10303000F6D3286800682040F2D1A86B0743AF633D
:10304000E86B0443EC630120F2BD0020F2BD0000F8
:103050000827014001100000F8B506003068032180
:1030600082680A40012A2AD101240268224002D142
:10307000C268120423D51025826805231340012B52
:1030800015D1826802231343836030680160FEF724
:10309000CFFE070030688068204010D0FEF7C8FEE1
:1030A000C01B0328F6D3306880682040F2D0B06B94
:1030B0000543B563F06B0443F4630120F2BD0020C7
:1030C000F2BDF8B50500286804278168394022D090
:1030D00010248168394005D08168890702D481684D
:1030E00021438160FEF7A4FE06002868806838400E
:1030F00011D0FEF79DFE801B0328F6D32868806858
:103100003840F2D0A86B0443AC63E86B0121014363
:10311000E9630120F2BD0020F2BD00000C00002098
:1031200040420F00FFFFFFFEFFFF7FFFFFFFBFFFDB
:1031300017000080012252054B18DA4201D95815B8
:1031400070475B0D0722D2019B1A10D9FF2B1DD2AD
:10315000DB050122D2070A4013430903020D114384
:10316000490AC200524100D9491CC81870470AD107
:10317000800A0A0302435212921C04D9D3070B405F
:10318000D00518437047C80FC0077047C80F00022A
:10319000FF30C0057047FEE79D2102000AD002D42F
:1031A000491E9218FCD5C905100A1206524100D3D7
:1031B000012A4841704700009D210200EED552428D
:1031C000F446FFF7EBFF0122D20710436047FEE70A
:1031D000012212060118CA420AD28A420DD83822A8
:1031E000120609098918C20FD20711434007704718
:1031F00000D049080909014301E0C10FC9070020B7
:103200007047FEE70EB4C0B5020003A8019000208D
:10321000009001AB0121044878440C30FCF74EFFCC
:10322000029906B0084700BF49010000686A6C7443
:103230007A4C00007072696E74665F733A20256E76
:1032400020646973616C6C6F776564007072696E7D
:1032500074663A2062616420256E20617267756D24
:10326000656E74007072696E74665F733A20626195
:103270006420257320617267756D656E74000000AF
:10328000000000006E616E004E414E00696E6600E7
:10329000494E4600300070B40123002413E0016859
:1032A000001D194202D04D466918491E0C60091DC7
:1032B000121F042AFAD20D00960701D50C80AD1C0E
:1032C0001A4000D02C700268001D002AE7D170BCA3
:1032D0007047FEE710B5074979441831064C7C4425
:1032E000163404E0081D0A68891888470100A142C5
:1032F000F8D110BD08000000240000009BFFFFFF74
:103300001C0100009000002000000000BFDDFFFF56
:10331000F7000000C80000000000002000F00DF8D9
:10332000002801D0FFF7D6FF00BF00BF002000BF7C
:1033300000BFFFF7F9F800F002F80120704780B5F0
:1033400000F002F801BDFEE707463846FEF778FABE
:10335000FBE7FEE70548014603B4684680F30988A9
:1033600000BF00BF00BF00BFFFF7D8FFA5EDF5FE0F
:1033700038B505000C00200000F006F8A04200D08F
:103380000025280032BDFEE780B50249FFF7BBF8F3
:1033900002BD00BF48000020704700000000000090
:1033A00000000000010203040607080901488047E5
:1033B0000148004799330008553300080248416826
:1033C000027889184160704700000020FEE7FEE7A0
:1033D0007047704780B5FFF7F1FF01BD00000000A6
:1033E00001020304FEE7FEE7FEE7FEE7FEE7FEE775
:1033F000FEE7FEE7FEE7FEE7FEE7FEE7FEE7FEE7A5
:10340000FEE7FEE7FEE7000001F9000004FC001EF5
:10341000127A000634000806340008063400080654
:10342000340008063400080634000806340008F8A2
:10343000FF0B5E1100080634000806340008FAFF8E
:103440001500000204010118010020680100201885
:1034500001002018010020FC000318010020FC00DE
:0B346000078C00002078000020E00036
:040000050800335567
:00000001FF
